:020000040800F2
:1000000000000320C5280008F90A0008FB0A0008C0
:10001000FD0A0008FF0A0008010B000800000000AC
:10002000000000000000000000000000030B0008BA
:10003000050B000800000000070B0008090B000872
:100040001529000815290008152900081529000898
:100050001529000815290008152900081529000888
:100060001529000815290008152900081529000878
:100070001529000815290008152900081529000868
:100080001529000815290008152900081529000858
:100090001529000815290008152900081529000848
:1000A000110B00081529000815290008152900085A
:1000B0001529000815290008152900081529000828
:1000C0001529000815290008152900081529000818
:1000D0001529000815290008152900081529000808
:1000E00015290008152900081529000815290008F8
:1000F00015290008152900081529000815290008E8
:1001000015290008152900081529000815290008D7
:1001100015290008152900081529000815290008C7
:1001200015290008152900081529000815290008B7
:1001300015290008152900081529000815290008A7
:100140001529000815290008152900081529000897
:100150001529000815290008152900081529000887
:100160001529000815290008152900081529000877
:1001700015290008152900081529000800000000AD
:100180001529000815290008210B00081529000869
:100190001529000815290008152900081529000847
:0C01A0000000000000000000152900080D
:1001AC0010B5054C237833B9044B13B10448AFF3A5
:1001BC0000800123237010BD90000020000000007F
:1001CC007029000808B5034B1BB103490348AFF372
:1001DC00008008BD00000000940000207029000879
:1001EC0053B94AB9002908BF00281CBF4FF0FF3192
:1001FC004FF0FF3000F074B9ADF1080C6DE904CE8E
:10020C0000F006F8DDF804E0DDE9022304B07047E5
:10021C002DE9F047089D04468E46002B4DD18A42AD
:10022C00944669D9B2FA82F252B101FA02F3C2F1E0
:10023C00200120FA01F10CFA02FC41EA030E944071
:10024C004FEA1C48210CBEFBF8F61FFA8CF708FB92
:10025C0016E341EA034306FB07F199420AD91CEB6A
:10026C00030306F1FF3080F01F81994240F21C819C
:10027C00023E63445B1AA4B2B3FBF8F008FB1033E4
:10028C0044EA034400FB07F7A7420AD91CEB040419
:10029C0000F1FF3380F00A81A74240F207816444E9
:1002AC00023840EA0640E41B00261DB1D44000236E
:1002BC00C5E900433146BDE8F0878B4209D9002DD2
:1002CC0000F0EF800026C5E9000130463146BDE85C
:1002DC00F087B3FA83F6002E4AD18B4202D38242C6
:1002EC0000F2F980841A61EB030301209E46002D75
:1002FC00E0D0C5E9004EDDE702B9FFDEB2FA82F2CA
:10030C00002A40F09280A1EB0C014FEA1C471FFA27
:10031C008CFE0126200CB1FBF7F307FB131140EA0E
:10032C0001410EFB03F0884208D91CEB010103F1DB
:10033C00FF3802D2884200F2CB804346091AA4B29D
:10034C00B1FBF7F007FB101144EA01440EFB00FE71
:10035C00A64508D91CEB040400F1FF3102D2A645D6
:10036C0000F2BB800846A4EB0E0440EA03409CE775
:10037C00C6F12007B34022FA07FC4CEA030C20FA22
:10038C0007F401FA06F31C43F9404FEA1C4900FA42
:10039C0006F3B1FBF9F8200C1FFA8CFE09FB1811BF
:1003AC0040EA014108FB0EF0884202FA06F20BD932
:1003BC001CEB010108F1FF3A80F08880884240F282
:1003CC008580A8F102086144091AA4B2B1FBF9F0C6
:1003DC0009FB101144EA014100FB0EFE8E4508D9C1
:1003EC001CEB010100F1FF346CD28E456AD9023846
:1003FC00614440EA0840A0FB0294A1EB0E01A1422B
:10040C00C846A64656D353D05DB1B3EB080261EB98
:10041C000E0101FA07F722FA06F3F1401F43C5E972
:10042C00007100263146BDE8F087C2F12003D840A8
:10043C000CFA02FC21FA03F3914001434FEA1C47EA
:10044C001FFA8CFEB3FBF7F007FB10360B0C43EADC
:10045C00064300FB0EF69E4204FA02F408D91CEB8C
:10046C00030300F1FF382FD29E422DD9023863448A
:10047C009B1B89B2B3FBF7F607FB163341EA03412A
:10048C0006FB0EF38B4208D91CEB010106F1FF3879
:10049C0016D28B4214D9023E6144C91A46EA004670
:1004AC0038E72E46284605E70646E3E61846F8E602
:1004BC004B45A9D2B9EB020864EB0C0E0138A3E74B
:1004CC004646EAE7204694E74046D1E7D0467BE72C
:1004DC00023B614432E7304609E76444023842E7A4
:1004EC00704700BF30B58BB0002405940694079478
:1004FC00089409940094224B1A6B42F480721A638C
:10050C001A6B02F480720092009A01941A6B42F0FA
:10051C0080021A631A6B02F080020192019A029413
:10052C001A6B42F008021A631A6B02F0080202926C
:10053C00029A03941A6B42F040021A631A6B02F08F
:10054C0040020392039A04941A6B42F010021A634D
:10055C001B6B03F010030493049B0A4D22460221EB
:10056C00284601F099FC0223059301230693079476
:10057C00089405A9284601F091FB0BB030BD00BFD3
:10058C000038024000180240592803DC002802DC25
:10059C00002000E05A2007EE900AB8EEE77ADFED73
:1005AC000A7AC7EE276A4B780A789B1A07EE903ABC
:1005BC00F8EEE77A67EEA67AFDEEE77A17EE903A58
:1005CC001A440A73704700BF0000B44238B5354B6B
:1005DC001A6801321A601A68334BA3FB02135B09C9
:1005EC00642101FB13230BB100241DE002212F48D1
:1005FC0001F058FCF8E7042B27D0082B2DD02C4BFE
:10060C0003EB04135A6812681B7B1364294D05EB2A
:10061C0004152946687BFFF7B7FFAB682BBB6A68EC
:10062C0012682B7B53630134032C3ADC204D05EB11
:10063C0004152946687BFFF7A7FFAB68002BDAD1BE
:10064C006A6812682B7B5363E0E7194B03EB0413C6
:10065C005A6812681B7B9363D8E7154B03EB0413A2
:10066C005A6812681B7BD363D0E7042B09D0082B84
:10067C000FD0104B03EB04135A6812681B7B1364E6
:10068C00D1E70C4B03EB04135A6812681B7B936382
:10069C00C9E7084B03EB04135A6812681B7BD3633E
:1006AC00C1E738BDC80000201F85EB51001802407F
:1006BC00400000200000002008B501220249034838
:1006CC0002F0DDF808BD00BFEC010020A8010020FD
:1006DC0072B6FEE700B58BB0002308930993019323
:1006EC000293039304930593069307932348244A98
:1006FC0002609F224260836040F2CF72C26003614D
:10070C00836100F06FFD60BB00230893099308A977
:10071C001A4800F057FF30BB6023019396230293D5
:10072C0000220392059201A9144800F0BFFDE0B924
:10073C0004220DEB0201114800F0B8FDB8B90822F3
:10074C0001A90E4800F0B2FD98B90C2201A90B4882
:10075C0000F0ACFD78B9094800F04AFA0BB05DF82E
:10076C0004FBFFF7B5FFFFF7B3FFFFF7B1FFFFF790
:10077C00AFFFFFF7ADFFFFF7ABFF00BF1801002085
:10078C00000C004000B58BB0002308930993019333
:10079C000293039304930593069307932348244AE7
:1007AC0002609F224260836040F2CF72C26003619C
:1007BC00836100F017FD60BB00230893099308A91F
:1007CC001A4800F0FFFE30BB60230193962302937E
:1007DC0000220392059201A9144800F067FDE0B9CC
:1007EC0004220DEB0201114800F060FDB8B908229B
:1007FC0001A90E4800F05AFD98B90C2201A90B482A
:10080C0000F054FD78B9094800F0F2F90BB05DF82E
:10081C0004FBFFF75DFFFFF75BFFFFF759FFFFF7E7
:10082C0057FFFFF755FFFFF753FF00BFD000002025
:10083C000008004000B585B000230093019302939B
:10084C0003930F480F4A02604FF4C8624260836002
:10085C006422C26003618023836100F097FC50B96D
:10086C004FF4805300936946054800F09AFD20B977
:10087C0005B05DF804FBFFF72BFFFFF729FF00BF66
:10088C00600100200040014008B50A480A4B036093
:10089C004FF41653436000238360C36003610C2242
:1008AC0042618361C36101F069FD00B908BDFFF7C6
:1008BC000FFF00BFA80100200078004000B595B0E4
:1008CC003022002108A802F045F80023039304937A
:1008DC000593069307930193194A116C41F08051CB
:1008EC001164126C02F080520192019A0293154924
:1008FC000A6822F4404242F480420A600A6802F418
:10090C0040420292029A0222089201220B92102279
:10091C000C920E9308A800F09DFE68B90F23039368
:10092C000021049105910691079103A801F0E0F8CC
:10093C0020B915B05DF804FBFFF7CAFEFFF7C8FE3F
:10094C0000380240007000402DE9F84301F0A2FB92
:10095C00FFF7B4FFFFF7C6FDFFF7BCFEFFF712FF72
:10096C00FFF768FFFFF790FF574800F0A5FA002447
:10097C001AE0564F250107EB04139968586800F0EC
:10098C009FFD534E73199968586800F099FD7A5D74
:10099C00504B23F81420211D725D23F811204E4B6F
:1009AC002D225A541A550134032CE2DD0C224B49EA
:1009BC004B4801F064FF454C5A2565730026667759
:1009CC002D2384F82D3084F83D30414B0A225A7384
:1009DC005A7783F82D20502283F83D2041F288303D
:1009EC0001F084FB962001F081FB66734FF4967046
:1009FC0001F07CFB4FF4967001F078FB962001F02F
:100A0C0075FB84F82D504FF4967001F06FFB4FF48A
:100A1C00967001F06BFB44E032490B780133DBB28A
:100A2C000B700A2301222E4801F0D7FC962001F00E
:100A3C005DFB264C5A25657765734FF4967001F073
:100A4C0055FB4FF4967001F051FB962001F04EFBD4
:100A5C00002684F83D6084F82D604FF4967001F008
:100A6C0045FB4FF4967001F041FB962001F03EFBE4
:100A7C00667766734FF4967001F038FB4FF49670FE
:100A8C0001F034FB962001F031FB84F83D5084F8E2
:100A9C002D504FF4967001F029FB4FF4967001F035
:100AAC0025FB1149D1E9002312F1010843F100099A
:100ABC00C1E900894FF47A720023D1E90001FFF7F4
:100ACC008FFB1343A8D0B1E7600100204000002049
:100ADC0000000020AC000020FC010020EC010020F4
:100AEC00A8010020CC000020C0000020FEE7FEE79B
:100AFC00FEE7FEE7FEE770477047704708B501F068
:100B0C00E3FA08BD08B5024800F01EFA08BD00BFA4
:100B1C006001002008B5024801F054FD08BD00BF7B
:100B2C00A801002082B0002100910B4B5A6C42F4BA
:100B3C0080425A645A6C02F480420092009A0191ED
:100B4C001A6C42F080521A641B6C03F080530193B0
:100B5C00019B02B0704700BF0038024082B00368AE
:100B6C00104A934204D0104A93420ED002B0704700
:100B7C00002300930D4B1A6C42F004021A641B6C98
:100B8C0003F004030093009BF0E700230193074B51
:100B9C001A6C42F008021A641B6C03F008030193F0
:100BAC00019BE3E700080040000C004000380240C5
:100BBC0002680E4B9A4200D0704700B583B00021FA
:100BCC00019103F578435A6C42F480325A645B6CA1
:100BDC0003F480330193019B0A46182001F0DAF9E3
:100BEC00182001F00FFA03B05DF804FB004001403F
:100BFC0030B589B0002303930493059306930793B0
:100C0C000368254A934204D0244A934218D009B071
:100C1C0030BD00230093224B1A6B42F008021A637A
:100C2C001B6B03F008030093009B4FF4704303937A
:100C3C0002230493079303A91A4801F02FF8E6E75F
:100C4C0000250195164B1A6B42F480721A631A6BCD
:100C5C0002F480720192019A02951A6B42F08002A2
:100C6C001A631B6B03F080030293029B0123039313
:100C7C0002240494079403A90B4801F00FF84FF4D5
:100C8C00E0530393049405950695079403A907482C
:100C9C0001F004F8BBE700BF00080040000C004066
:100CAC0000380240000C024000200240001C0240B0
:100CBC0010B588B000230393049305930693079310
:100CCC000268194B9A4201D008B010BD002401945F
:100CDC0003F5E0331A6C42F080421A641A6C02F08D
:100CEC0080420192019A02941A6B42F010021A632C
:100CFC001B6B03F010030293029B4FF4C07303931E
:100D0C0002230493032306930823079303A907489C
:100D1C0000F0C4FF22462146522001F03BF952203C
:100D2C0001F070F9D0E700BF0078004000100240DD
:100D3C0030B4036A23F001030362036A42688469D6
:100D4C0024F073040D682C4323F0020C8B6843EAE7
:100D5C000C03104DA84203D005F58065A84205D1BF
:100D6C0023F00803CD682B4323F00403094DA8425C
:100D7C0003D005F58065A84205D122F440724D6977
:100D8C002A438D692A43426084614A684263036244
:100D9C0030BC70470000014030B4036A23F4807308
:100DAC000362036A4268C46924F0730C0C6844EA59
:100DBC000C0523F400738C6843EA0423114CA04205
:100DCC0003D004F58064A04206D123F40063CC6800
:100DDC0043EA042323F480630A4CA04203D004F5B5
:100DEC008064A04207D122F440524C6942EA0412BA
:100DFC008C6942EA04124260C5614A68C2630362AC
:100E0C0030BC70470000014030B4036A23F48053B7
:100E1C000362036A4468C26922F4E6420D6842EA3E
:100E2C00052223F400538D6843EA0533094DA8428B
:100E3C0003D005F58065A84204D124F480444D69A3
:100E4C0044EA85144460C2614A680264036230BC9F
:100E5C00704700BF0000014010B4036A046A24F01C
:100E6C0001040462846924F0F00C4CEA021223F0B1
:100E7C000A030B43826103625DF8044B704710B4A4
:100E8C00046A24F0100404628469036A24F4704C2C
:100E9C004CEA023223F0A00343EA0113826103629D
:100EAC005DF8044B7047836823F070030B4343F0E9
:100EBC00070383607047000090F83D30DBB2012BD4
:100ECC0037D1022380F83D300268D36843F0010328
:100EDC00D3600368194A934220D0B3F1804F1DD0E0
:100EEC00A2F57C42934219D002F58062934215D050
:100EFC0002F58062934211D002F5784293420DD0F4
:100F0C0002F57052934209D0A2F59432934205D067
:100F1C001A6842F001021A60002070479A6802F0C9
:100F2C000702062A07D01A6842F001021A60002054
:100F3C007047012070470020704700BF000001403F
:100F4C00704770477047704710B5044603681A69BC
:100F5C0012F0020F11D0DA6812F0020F0DD06FF000
:100F6C0002021A610123037703689B6913F0030FD4
:100F7C0070D0FFF7E6FF0023237723681A6912F07D
:100F8C00040F12D0DA6812F0040F0ED06FF00402C6
:100F9C001A610223237723689B6913F4407F5FD087
:100FAC002046FFF7CEFF0023237723681A6912F03F
:100FBC00080F12D0DA6812F0080F0ED06FF008028A
:100FCC001A61042323772368DB6913F0030F4ED0D7
:100FDC002046FFF7B6FF0023237723681A6912F027
:100FEC00100F12D0DA6812F0100F0ED06FF0100242
:100FFC001A61082323772368DB6913F4407F3DD003
:10100C002046FFF79EFF0023237723681A6912F00E
:10101C00010F03D0DA6812F0010F36D123681A6978
:10102C0012F0800F03D0DA6812F0800F34D12368ED
:10103C001A6912F0400F03D0DA6812F0400F32D167
:10104C0023681A6912F0200F03D0DA6812F0200F0F
:10105C0030D110BDFFF774FF2046FFF773FF8AE70E
:10106C002046FFF76DFF2046FFF76CFF9BE72046FD
:10107C00FFF766FF2046FFF765FFACE72046FFF75A
:10108C005FFF2046FFF75EFFBDE76FF001021A61BC
:10109C002046FFF79BFAC1E76FF080021A612046E9
:1010AC0000F0D7FAC3E76FF040021A612046FFF751
:1010BC004AFFC5E76FF020021A61204600F0C8FA1B
:1010CC00C7E700000368304A904212D0B0F1804F5D
:1010DC000FD0A2F57C4290420BD002F58062904278
:1010EC0007D002F58062904203D002F5784290421C
:1010FC0003D123F070034A681343234A90422AD049
:10110C00B0F1804F27D0A2F57C42904223D002F55B
:10111C00806290421FD002F5806290421BD002F593
:10112C007842904217D002F57052904213D002F5DB
:10113C00806290420FD002F5806290420BD0A2F5F3
:10114C009832904207D002F58062904203D002F5AB
:10115C008062904203D123F44073CA68134323F096
:10116C0080034A69134303608B68C3620B68836214
:10117C00054B984203D003F58063984201D10B696B
:10118C0003630123436170470000014040B310B575
:10119C00044690F83D30F3B1022384F83D302146EB
:1011AC0051F8040BFFF78EFF012384F8463084F8C6
:1011BC003E3084F83F3084F8403084F8413084F875
:1011CC00423084F8433084F8443084F8453084F855
:1011DC003D30002010BD80F83C30FFF7E9FCDBE728
:1011EC000120704740B310B5044690F83D30F3B180
:1011FC00022384F83D30214651F8040BFFF762FFBF
:10120C00012384F8463084F83E3084F83F3084F86B
:10121C00403084F8413084F8423084F8433084F80C
:10122C00443084F8453084F83D30002010BD80F8FF
:10123C003C30FFF793FCDBE70120704730B4036AC6
:10124C0023F010030362036A4468826922F4E642C5
:10125C000D6842EA052223F020038D6843EA05134A
:10126C00114DA84203D005F58065A84206D123F0A4
:10127C008003CD6843EA051323F040030A4DA842CE
:10128C0003D005F58065A84207D124F440644D696C
:10129C0044EA85048D6944EA8504446082614A68A5
:1012AC008263036230BC70470000014038B590F88F
:1012BC003C30012B66D004460D46012380F83C30AF
:1012CC000C2A5AD8DFE802F0075959591B595959B9
:1012DC003059595944000068FFF72AFD2268936978
:1012EC0043F0080393612268936923F0040393612C
:1012FC002268936929690B43936100203EE00068E2
:10130C00FFF79CFF2268936943F4006393612268A2
:10131C00936923F48063936122689369296943EA92
:10132C0001239361002029E00068FFF735FD226856
:10133C00D36943F00803D3612268D36923F0040313
:10134C00D3612268D36929690B43D361002015E06E
:10135C000068FFF759FD2268D36943F40063D36139
:10136C002268D36923F48063D3612268D369296925
:10137C0043EA0123D361002000E00120002384F81C
:10138C003C3038BD0220FCE710B4846824F47F4C58
:10139C0042EA03220A4342EA0C0282605DF8044BE3
:1013AC00704790F83C30012B78D010B504460123DF
:1013BC0080F83C30022380F83D300268936823F4B7
:1013CC007F4323F0770393600B68602B4CD029D8B4
:1013DC00402B54D00CD9502B22D1CA6849680068D4
:1013EC00FFF73AFD50212068FFF75DFD002005E076
:1013FC00202B0DD009D9302B0AD00120012384F8E1
:10140C003D30002384F83C3010BD0BB1102B05D1BE
:10141C0019462068FFF747FD0020EFE70120EDE7B4
:10142C000120EBE7B3F5805F34D0B3F5005F0CD14E
:10143C00CB684A6889680068FFF7A6FF2268936842
:10144C0043F4804393600020D8E7702B24D1CB6801
:10145C004A6889680068FFF797FF2268936843F031
:10146C00770393600020C9E7CA6849680068FFF7F2
:10147C0006FD60212068FFF716FD0020BEE7CA6854
:10148C0049680068FFF7E8FC40212068FFF70BFD76
:10149C000020B3E70020B1E70120AFE7022070473E
:1014AC0001F01F01012303FA01FC036A23EA0C0378
:1014BC000362036A02FA01F10B43036270470000F6
:1014CC0010B504460846002942D194F83E30DBB2F0
:1014DC00013B18BF0123002B6ED1002851D10223F0
:1014EC0084F83E30012201462068FFF7D9FF2368BB
:1014FC00334A934203D002F58062934203D15A6C73
:10150C0042F400425A6423682D4A934249D0B3F105
:10151C00804F46D0A2F57C42934242D002F58062C5
:10152C0093423ED002F5806293423AD002F5784263
:10153C00934236D002F57052934232D0A2F59432D7
:10154C0093422ED01A6842F001021A60002032E059
:10155C00042908D008290DD094F84130DBB2013BA6
:10156C0018BF0123B7E794F83F30DBB2013B18BF3B
:10157C000123B0E794F84030DBB2013B18BF0123E4
:10158C00A9E7042805D0082807D0022384F84130A5
:10159C00A8E7022384F83F30A4E7022384F8403004
:1015AC00A0E79A6802F00702062A07D01A6842F0F0
:1015BC0001021A60002010BD0120FCE70020FAE7B0
:1015CC000000014090F83C30012B3DD010B40123B9
:1015DC0080F83C30022380F83D3003685A689C68E0
:1015EC0022F0700C0A6842EA0C025A600368174A2F
:1015FC0093421AD0B3F1804F17D0A2F57C4293429C
:10160C0013D002F5806293420FD002F580629342B0
:10161C000BD002F57842934207D002F570529342F8
:10162C0003D0A2F59432934204D124F080044A688A
:10163C0014439C60012380F83D30002380F83C303B
:10164C0018465DF8044B70470220704700000140BB
:10165C0070477047002800F0E08170B582B00446F6
:10166C00036813F0010F3BD09F4B9B6803F00C03F6
:10167C00042B2CD09C4B9B6803F00C03082B21D023
:10168C006368B3F5803F4FD0B3F5A02F52D0964B83
:10169C001A6822F480321A601A6822F480221A60C6
:1016AC006368002B50D000F01BFD05468E4B1B6869
:1016BC0013F4003F14D100F013FD401B6428F5D93E
:1016CC000320B1E1884B5B6813F4800FD8D0864BB4
:1016DC001B6813F4003F03D06368002B00F09F815C
:1016EC00236813F0020F54D07F4B9B6813F00C0F40
:1016FC003ED07D4B9B6803F00C03082B33D0E36882
:10170C00002B68D0794B01221A6000F0E9FC0546E9
:10171C00754B1B6813F0020F54D100F0E1FC401B19
:10172C000228F5D903207FE16F4A136843F4803314
:10173C001360B5E76C4B1A6842F480221A601A6881
:10174C0042F480321A60ABE700F0CAFC0546664BE7
:10175C001B6813F4003FC3D000F0C2FC401B64288C
:10176C00F5D9032060E1604B5B6813F4800FC6D1A0
:10177C005D4B1B6813F0020F03D0E368012B40F0A4
:10178C005081594A136823F0F803216943EAC103D5
:10179C001360236813F0080F42D063696BB3534B8B
:1017AC000122C3F8802E00F09BFC05464E4B5B6F6C
:1017BC0013F0020F34D100F093FC401B0228F5D932
:1017CC00032031E1484A136823F0F803216943EA06
:1017DC00C1031360DDE7454B00221A6000F080FC6A
:1017EC000546414B1B6813F0020FD2D000F078FC79
:1017FC00401B0228F5D9032016E13C4B0022C3F80C
:10180C00802E00F06DFC0546374B5B6F13F0020F1A
:10181C0006D000F065FC401B0228F5D9032003E13B
:10182C00236813F0040F77D02F4B1B6C13F0805FE1
:10183C0033D1002301932C4B1A6C42F080521A6462
:10184C001B6C03F080530193019B0125284B1B68F3
:10185C0013F4807F23D0A368012B34D0052B38D010
:10186C00214B1A6F22F001021A671A6F22F0040240
:10187C001A67A368002B3DD000F032FC06461A4BC9
:10188C001B6F13F0020F46D100F02AFC801B41F2B3
:10189C0088339842F3D90320C6E00025D6E7144AD2
:1018AC00136843F48073136000F01AFC0646104B67
:1018BC001B6813F4807FCED100F012FC801B022831
:1018CC00F5D90320B0E0084A136F43F00103136706
:1018DC00CFE7054B1A6F42F004021A671A6F42F0F9
:1018EC0001021A67C5E700BF0038024000004742FA
:1018FC000070004000F0F4FB0646524B1B6F13F0D7
:10190C00020F08D000F0ECFB801B41F288339842A8
:10191C00F3D9032088E0EDB9A369002B00F0838094
:10192C00484A926802F00C02082A51D0022B17D0B8
:10193C00454B00221A6600F0D3FB0446414B1B6852
:10194C0013F0007F42D000F0CBFB001B0228F5D92E
:10195C00032069E03B4A136C23F080531364DBE7EC
:10196C00394B00221A6600F0BBFB0546354B1B6851
:10197C0013F0007F06D000F0B3FB401B0228F5D912
:10198C00032051E0E369226A1343626A43EA82133B
:10199C00A26A5208013A43EA0243E26A43EA02634A
:1019AC00284A5360284B01221A6600F099FB044622
:1019BC00244B1B6813F0007F06D100F091FB001B39
:1019CC000228F5D903202FE000202DE000202BE089
:1019DC00012B2BD01B4B5B6803F48001E269914215
:1019EC0026D103F03F02216A8A4223D1616A47F66D
:1019FC00C0721A40B2EB811F1ED103F44031A26AAF
:101A0C005208013AB1EB024F18D103F07063E26A4D
:101A1C00B3EB026F14D1002006E0012070470120C7
:101A2C0002E0012000E0002002B070BD0120FBE7C5
:101A3C000120F9E70120F7E70120F5E70120F3E7A2
:101A4C000120F1E7003802400000474208B5254B61
:101A5C009B6803F00C03042B3FD0082B3FD1214B88
:101A6C005A6802F03F025B6813F4800F12D01D4BD2
:101A7C005968C1F388111C480023A1FB0001FEF733
:101A8C00AFFB184B5B68C3F3014301335B00B0FB46
:101A9C00F3F025E0134B5968C1F3881C4FEA4C1145
:101AAC00B1EB0C006EEB0E0E4FEA8E1343EA906313
:101ABC008101091A63EB0E03DB0043EA5173C90081
:101ACC0011EB0C0C43F10003990200234FEA8C201C
:101ADC0041EA9C51FEF784FBD3E7034800E003483E
:101AEC0008BD00BF0038024040787D010024F4009E
:101AFC00002800F09B8070B50D4604464F4B1B68C8
:101B0C0003F00F038B4208D2CBB24C4A137013680C
:101B1C0003F00F038B4240F08B80236813F0020F0D
:101B2C0017D013F0040F04D0454A936843F4E053E4
:101B3C009360236813F0080F04D0414A936843F470
:101B4C00604393603E4A936823F0F003A1680B4313
:101B5C009360236813F0010F32D06368012B21D0FE
:101B6C009A1E012A25D9364A126812F0020F61D04A
:101B7C0033498A6822F0030213438B6000F0B0FAF9
:101B8C0006462F4B9B6803F00C036268B3EB820F85
:101B9C0016D000F0A5FA801B41F288339842F0D998
:101BAC00032042E0264A126812F4003FE0D10120E3
:101BBC003BE0234A126812F0007FD9D1012034E0B7
:101BCC001E4B1B6803F00F03AB4207D9EAB21B4B49
:101BDC001A701B6803F00F03AB422DD1236813F06E
:101BEC00040F06D0164A936823F4E053E1680B43C4
:101BFC009360236813F0080F07D0114A936823F4FD
:101C0C006043216943EAC1039360FFF71FFF0C4B4C
:101C1C009B68C3F303130B4AD35CD8400A4B186080
:101C2C000A4B186800F010FA002070BD01207047B4
:101C3C000120FAE70120F8E70120F6E7003C02401A
:101C4C000038024088290008880000208400002009
:101C5C00014B1868704700BF8800002008B5FFF7DB
:101C6C00F7FF044B9B68C3F38223034AD35CD84031
:101C7C0008BD00BF003802409829000808B5FFF7DE
:101C8C00E7FF044B9B68C3F34233034AD35CD84051
:101C9C0008BD00BF003802409829000800230F2B14
:101CAC0000F2F18070B582B061E085685E000324BB
:101CBC00B44025EA0405CC68B4402C4384604568E4
:101CCC0025EA02054C68C4F300129A402A4342608C
:101CDC005BE0DC08083450F8246003F00702950040
:101CEC000F22AA4026EA020E0A69AA4042EA0E0214
:101CFC0040F824205DE0092200E0002202FA0EF2F6
:101D0C002A430234604D45F82420604A94686FEAF7
:101D1C000C0224EA0C054E6816F4801F01D04CEA24
:101D2C0004055A4CA560E46802EA04054E6816F4F2
:101D3C00001F01D04CEA0405544CE560646802EACB
:101D4C0004054E6816F4003F01D04CEA04054F4CD4
:101D5C006560246822404D6815F4803F01D04CEA40
:101D6C0004024A4C226001330F2B00F28A800122BC
:101D7C009A400C6804EA020C32EA0404F3D14C6871
:101D8C0004F00304013C012C8FD94A6802F00302D1
:101D9C00032A09D0C4685D000322AA4024EA020485
:101DAC008A68AA402243C2604A6802F00302022AEF
:101DBC008FD004684FEA430E032202FA0EF224EA93
:101DCC0002044A6802F0030202FA0EF22243026095
:101DDC004A6812F4403FC6D0002201922C4A546C3F
:101DEC0044F480445464526C02F480420192019A8F
:101DFC009C08A51C244A52F8255003F003024FEA14
:101E0C00820E0F2202FA0EF225EA0205214A9042B6
:101E1C003FF473AF02F58062904222D002F58062EB
:101E2C00904220D002F5806290421ED002F5806272
:101E3C0090421CD002F5806290421AD002F580626A
:101E4C00904218D002F58062904216D002F5806262
:101E5C00904214D002F5806290423FF44CAF0A22BB
:101E6C004CE701224AE7022248E7032246E7042214
:101E7C0044E7052242E7062240E707223EE7082214
:101E8C003CE702B070BD704700380140003C014097
:101E9C0000380240000002400AB181617047090419
:101EAC0081617047436901EA030221EA030141EAB7
:101EBC0002418161704770B50446866D00F010F9DF
:101ECC0094F83530DBB2022B06D0802363650023F7
:101EDC0084F83430012070BD05462268136823F065
:101EEC00160313602268536923F080035361236C3B
:101EFC00E3B12268136823F00803136022681368A7
:101F0C0023F00103136023681B6813F0010F11D039
:101F1C0000F0E6F8431B052BF5D92023636503205D
:101F2C0084F83500002384F83430D4E7A36C002BFC
:101F3C00DFD1E3E7E26D3F239340B360012384F8E4
:101F4C003530002084F83400C5E790F83530DBB22A
:101F5C00022B03D08023436501207047052380F8B2
:101F6C0035300268136823F00103136000207047BA
:101F7C00074AD36823F4E0631B041B0C000200F433
:101F8C00E060034343F0BF6343F40033D360704716
:101F9C0000ED00E000B5194BDB68C3F30223C3F17D
:101FAC00070CBCF1040F28BF4FF0040C03F1040E16
:101FBC00BEF1060F18D9033B4FF0FF3E0EFA0CFC96
:101FCC0021EA0C0199400EFA03F322EA03031943A8
:101FDC0000280BDB0901C9B200F1604000F561403B
:101FEC0080F800135DF804FB0023E5E700F00F0018
:101FFC000901C9B2024B1954F4E700BF00ED00E02F
:10200C0014ED00E0002807DB00F01F02400901235B
:10201C009340024A42F82030704700BF00E100E0D4
:10202C000138B0F1807F0BD24FF0E0235861054AA4
:10203C00F02182F823100020986107221A61704762
:10204C000120704700ED00E010B504460E4B1878E7
:10205C004FF47A73B3FBF0F30C4A1068B0FBF3F057
:10206C00FFF7DEFF68B90F2C01D901200AE000222E
:10207C0021464FF0FF30FFF78DFF054B1C60002011
:10208C0000E0012010BD00BF80000020880000206F
:10209C008400002008B50B4B1A6842F400721A60D9
:1020AC001A6842F480621A601A6842F480721A60EC
:1020BC000320FFF75DFF0F20FFF7C6FFFEF732FD91
:1020CC00002008BD003C0240034A1168034B1B78FA
:1020DC000B441360704700BF0402002080000020F6
:1020EC00014B1868704700BF0402002038B5044645
:1020FC00FFF7F6FF0546B4F1FF3F02D0044B1B7807
:10210C001C44FFF7EDFF401BA042FAD338BD00BFC3
:10211C0080000020034AD2F8883043F47003C2F8E0
:10212C008830704700ED00E0026802F10C0353E8C0
:10213C00003F23F490730C3242E800310029F3D1B4
:10214C00026802F1140353E8003F23F00103143238
:10215C0042E800310029F3D1036B012B05D0202379
:10216C0080F83E30002303637047026802F10C03D1
:10217C0053E8003F23F010030C3242E800310029F1
:10218C00F3D1ECE790F83D30DBB2212B01D00220EB
:10219C0070478368B3F5805F17D0036A5A1C0262DC
:1021AC001A7803685A60C38C9BB2013B9BB2C38400
:1021BC004BB90268D36823F08003D3600268D368FC
:1021CC0043F04003D360002070470369002BE4D137
:1021DC00036A1B880268C3F308035360036A023363
:1021EC000362E0E738B504460268136923F44053F0
:1021FC00C1680B431361836802691343426913433B
:10220C00C2691A430168CB6823F4164323F00C030C
:10221C001343CB600268536923F4407381690B4309
:10222C0053610368314A934206D002F580629342AF
:10223C0002D0FFF713FD01E0FFF720FDE369B3F5D2
:10224C00004F29D00021031849411B1841F100010E
:10225C00C90041EA5371DB00181863684FEA830226
:10226C004FEA937341F10001FDF7BAFF204DA5FB36
:10227C0000325109642303FB11031B013233A5FB0C
:10228C0003235B0903F0F00202EB011203F00F03CE
:10229C00216813448B6038BD0023021843EB030103
:1022AC00121841F10001C90041EA5271D200101814
:1022BC0041F10001626892185B41FDF791FF0C4DF2
:1022CC00A5FB00325109642303FB1103DB003233FD
:1022DC00A5FB03235B095A0002F4F87202EB01120E
:1022EC0003F00703216813448B60D4E7001001400E
:1022FC001F85EB512DE9F84305460F4616469946C6
:10230C00DDF820802C68246837EA04030CBF4FF0FA
:10231C00010C4FF0000CB4452DD1B8F1FF3FF1D0BA
:10232C00B8F1000F05D0FFF7DBFEA0EB090040452C
:10233C00E8D92A6802F10C0353E8003F23F4D07368
:10234C000C3242E800310029F3D12A6802F114035F
:10235C0053E8003F23F00103143242E80031002916
:10236C00F3D1202385F83D3085F83E30002385F8E5
:10237C003C30032000E00020BDE8F88358B310B5D2
:10238C00044690F83D300BB3242384F83D3022688A
:10239C00D36823F40053D3602046FFF723FF226851
:1023AC00136923F4904313612268536923F02A03C1
:1023BC0053612268D36843F40053D3600020206437
:1023CC00202384F83D3084F83E3010BD80F83C303A
:1023DC00FEF76EFCD8E7012070472DE9F04182B082
:1023EC001E4690F83D30DBB2202B54D104460D46EE
:1023FC009046002953D0002A53D090F83C30012B42
:10240C0051D0012380F83C3000230364212380F851
:10241C003D30FFF765FE0746A4F82480A4F826801B
:10242C00A368B3F5805F05D04FF00008002384F853
:10243C003C3012E0236913B14FF00008F6E7A846D0
:10244C000025F3E738F8023B2268C3F30803536016
:10245C00E28C92B2013A92B2E284E38C9BB273B1F9
:10246C0000963B46002280212046FFF743FFE0B94F
:10247C00002DE7D015F8012B23685A60E8E7009689
:10248C003B46002240212046FFF734FF78B9202339
:10249C0084F83D3000E0022002B0BDE8F08101205C
:1024AC00FAE70120F8E70220F6E70320F4E703201F
:1024BC00F2E7704708B50168CA6822F04002CA60AA
:1024CC00202280F83D20FFF7F4FF002008BD704764
:1024DC0008B5806B0023C385C384FFF7F8FF08BDE4
:1024EC00704790F83E30DBB2222B67D18368B3F58E
:1024FC00805F4DD0826AB3F5805F04D0002B54D13D
:10250C000369002B51D103685B681370836A013334
:10251C008362C38D9BB2013B9BB2C385002B4FD111
:10252C0000B583B00268D36823F02003D36002683F
:10253C00D36823F48073D3600268536923F00103DA
:10254C005361202380F83E30036B012B33D10023E1
:10255C000363026802F10C0353E8003F23F01003FD
:10256C000C3242E800310029F3D103681A6812F0EA
:10257C00100F06D0002201921A6801925B68019339
:10258C00019B818DFFF7ACFF002003B05DF804FBCD
:10259C000269002AAED1826A03685B68C3F3080340
:1025AC001380836A02338362B3E703685B6803F0CA
:1025BC007F031370AAE7FEF77FF8E5E70220704768
:1025CC000020704730B583B0044602681368D068A9
:1025DC00516913F00F0505D113F0200F02D010F044
:1025EC00200F19D12DB111F0010119D110F4907FE8
:1025FC0016D1216B01297DD013F0800F03D010F080
:10260C00800F40F0158113F0400F03D010F0400FF5
:10261C0040F0128103B030BD2046FFF762FFF9E7AE
:10262C0013F0010F06D010F4807F03D0226C42F01F
:10263C000102226413F0040F04D019B1226C42F091
:10264C000202226413F0020F04D019B1226C42F082
:10265C000402226413F0080F07D010F0200F00D1F1
:10266C0019B1226C42F008022264226C002AD1D0EB
:10267C0013F0200F02D010F0200F29D123685B69D2
:10268C0003F04003226C12F0080F00D163B3204614
:10269C00FFF74AFD23685B6913F0400F20D02268D6
:1026AC0002F1140353E8003F23F04003143242E8D4
:1026BC0000310029F3D1A36B73B1614A1A65A06B89
:1026CC00FFF743FC0028A5D0A06B036D9847A1E74A
:1026DC002046FFF706FFD1E72046FFF7F8FE99E703
:1026EC002046FFF7F4FE95E72046FFF7F0FE0023A7
:1026FC0023648FE713F0100F3FF47EAF10F0100F30
:10270C003FF47AAF0023019313680193536801934C
:10271C00019B536913F0400F50D0A26B13685B6898
:10272C009BB2002B3FF476AFA18D99427FF672AF2E
:10273C00E385D369B3F5807F37D0226802F10C03AF
:10274C0053E8003F23F480730C3242E80031002937
:10275C00F3D1226802F1140353E8003F23F0010384
:10276C00143242E800310029F3D1226802F114033B
:10277C0053E8003F23F04003143242E800310029B3
:10278C00F3D1202384F83E3000232363226802F126
:10279C000C0353E8003F23F010030C3242E80031E5
:1027AC000029F3D1A06BFFF786FBA18DE38D9BB2C3
:1027BC00C91A89B22046FFF793FE2BE7A18DE38D52
:1027CC009BB2C91A89B2E38D9BB2002B3FF422AFA6
:1027DC0000293FF41FAF226802F10C0353E8003FBD
:1027EC0023F490730C3242E800300028F3D12268B5
:1027FC0002F1140353E8003F23F00103143242E8C2
:10280C0000300028F3D1202384F83E3000232363CA
:10281C00226802F10C0353E8003F23F010030C3242
:10282C0042E800300028F3D12046FFF759FEF1E6CC
:10283C002046FFF7A7FCEDE62046FFF73BFEE9E656
:10284C00DD24000881628285C28500230364222274
:10285C0080F83E2080F83C30036923B10268D368CD
:10286C0043F48073D3600268536943F001035361EE
:10287C000268D36843F02003D3600020704708B58A
:10288C0090F83E30DBB2202B0DD171B17AB190F8BB
:10289C003C30012B0DD0012380F83C300023036326
:1028AC00FFF7D0FF00E0022008BD0120FCE701206B
:1028BC00FAE70220F8E70000DFF834D00D480E49A3
:1028CC000E4A002302E0D458C4500433C4188C427E
:1028DC00F9D30B4A0B4C002301E013600432A242E3
:1028EC00FBD3FFF717FC00F011F8FEF72DF870473B
:1028FC0000000320000000208C000020B0290008FC
:10290C009000002008020020FEE7000070B50D4D7D
:10291C000D4C641BA4100026A64209D10B4D0C4C87
:10292C0000F020F8641BA4100026A64205D170BD4F
:10293C0055F8043B98470136EEE755F8043B9847A9
:10294C000136F2E7A8290008A8290008A8290008E0
:10295C00AC29000802440346934200D1704703F8A7
:10296C00011BF9E7F8B500BFF8BC08BC9E467047E0
:0C297C00F8B500BFF8BC08BC9E467047D0
:102988000000000000000000010203040607080917
:0829980000000000010203042D
:0829A0007CD8FF7F010000005C
:0429A800D101000851
:0429AC00AD01000871
:1029B00051A00000D0000020000000000000000036
:1029C00045D20000D00000200400000000000000FC
:1029D00033AB0000D0000020080000000000000021
:1029E0005AF70000D00000200C000000000000009A
:1029F00037820000180100200000000000000000E5
:102A0000AFF80000180100200400000000000000E2
:102A1000338C0000180100200800000000000000B6
:102A200050AF0000180100200C0000000000000062
:0C2A300001000000100000000024F40071
:04000005080028C502
:00000001FF
